{
  "contractName": "PatientRole",
  "abi": [
    {
      "inputs": [],
      "stateMutability": "nonpayable",
      "type": "constructor"
    },
    {
      "anonymous": false,
      "inputs": [
        {
          "indexed": true,
          "internalType": "address",
          "name": "account",
          "type": "address"
        }
      ],
      "name": "PatientAdded",
      "type": "event"
    },
    {
      "anonymous": false,
      "inputs": [
        {
          "indexed": true,
          "internalType": "address",
          "name": "account",
          "type": "address"
        }
      ],
      "name": "PatientRemoved",
      "type": "event"
    },
    {
      "inputs": [
        {
          "internalType": "address",
          "name": "account",
          "type": "address"
        }
      ],
      "name": "isPatient",
      "outputs": [
        {
          "internalType": "bool",
          "name": "",
          "type": "bool"
        }
      ],
      "stateMutability": "view",
      "type": "function"
    },
    {
      "inputs": [
        {
          "internalType": "address",
          "name": "account",
          "type": "address"
        }
      ],
      "name": "addPatient",
      "outputs": [],
      "stateMutability": "nonpayable",
      "type": "function"
    },
    {
      "inputs": [],
      "name": "renouncePatient",
      "outputs": [],
      "stateMutability": "nonpayable",
      "type": "function"
    }
  ],
  "bytecode": "0x608060405234801561001057600080fd5b506100203361002560201b60201c565b61018b565b61003a60008261008060201b6100d91760201c565b8073ffffffffffffffffffffffffffffffffffffffff167fa58cff07db0adda3ab7a40bd2f18ab57210bf38391a52ffd2e8eee6b8bdec71a60405160405180910390a250565b600073ffffffffffffffffffffffffffffffffffffffff168173ffffffffffffffffffffffffffffffffffffffff1614156100ba57600080fd5b6100ca828261013260201b60201c565b156100d457600080fd5b60018260000160008373ffffffffffffffffffffffffffffffffffffffff1673ffffffffffffffffffffffffffffffffffffffff16815260200190815260200160002060006101000a81548160ff0219169083151502179055505050565b60008260000160008373ffffffffffffffffffffffffffffffffffffffff1673ffffffffffffffffffffffffffffffffffffffff16815260200190815260200160002060009054906101000a900460ff16905092915050565b6104278061019a6000396000f3fe608060405234801561001057600080fd5b50600436106100415760003560e01c80636d263ceb1461004657806381a07c36146100625780638f9c79ed1461006c575b600080fd5b610060600480360381019061005b919061038e565b61009c565b005b61006a6100ba565b005b6100866004803603810190610081919061038e565b6100c5565b60405161009391906103d6565b60405180910390f35b6100a5336100c5565b6100ae57600080fd5b6100b781610185565b50565b6100c3336101d6565b565b60006100d2600083610227565b9050919050565b600073ffffffffffffffffffffffffffffffffffffffff168173ffffffffffffffffffffffffffffffffffffffff16141561011357600080fd5b61011d8282610227565b1561012757600080fd5b60018260000160008373ffffffffffffffffffffffffffffffffffffffff1673ffffffffffffffffffffffffffffffffffffffff16815260200190815260200160002060006101000a81548160ff0219169083151502179055505050565b6101906000826100d9565b8073ffffffffffffffffffffffffffffffffffffffff167fa58cff07db0adda3ab7a40bd2f18ab57210bf38391a52ffd2e8eee6b8bdec71a60405160405180910390a250565b6101e1600082610280565b8073ffffffffffffffffffffffffffffffffffffffff167f053a4badf166f01c4b02f6bcb71d2d67734470d0866282e291e73001aa25c76960405160405180910390a250565b60008260000160008373ffffffffffffffffffffffffffffffffffffffff1673ffffffffffffffffffffffffffffffffffffffff16815260200190815260200160002060009054906101000a900460ff16905092915050565b600073ffffffffffffffffffffffffffffffffffffffff168173ffffffffffffffffffffffffffffffffffffffff1614156102ba57600080fd5b6102c48282610227565b6102cd57600080fd5b60008260000160008373ffffffffffffffffffffffffffffffffffffffff1673ffffffffffffffffffffffffffffffffffffffff16815260200190815260200160002060006101000a81548160ff0219169083151502179055505050565b600080fd5b600073ffffffffffffffffffffffffffffffffffffffff82169050919050565b600061035b82610330565b9050919050565b61036b81610350565b811461037657600080fd5b50565b60008135905061038881610362565b92915050565b6000602082840312156103a4576103a361032b565b5b60006103b284828501610379565b91505092915050565b60008115159050919050565b6103d0816103bb565b82525050565b60006020820190506103eb60008301846103c7565b9291505056fea2646970667358221220dce31f5db391d9c2b30763a0c63b2d3fa8d79d0d8a71c5a45a80ddc79eb9e8b664736f6c63430008090033",
  "immutableReferences": {},
  "source": "// SPDX-License-Identifier: GPL-3.0\r\npragma solidity ^0.8.9;\r\n\r\n// Import the library 'Roles'\r\nimport \"./Roles.sol\";\r\n\r\n// Define a contract 'PatientRole' to manage this role - add, remove, check\r\ncontract PatientRole {\r\n  using Roles for Roles.Role;\r\n\r\n  // Define 2 events, one for Adding, and other for Removing\r\n  event PatientAdded(address indexed account);\r\n  event PatientRemoved(address indexed account);\r\n\r\n  // Define a struct 'patients' by inheriting from 'Roles' library, struct Role\r\n  Roles.Role private patients;\r\n\r\n  // In the constructor make the address that deploys this contract the 1st patient\r\n  constructor() {\r\n    _addPatient(msg.sender);\r\n  }\r\n\r\n  // Define a modifier that checks to see if msg.sender has the appropriate role\r\n  modifier onlyPatient() {\r\n    require(isPatient(msg.sender));\r\n    _;\r\n  }\r\n\r\n  // Define a function 'isPatient' to check this role\r\n  function isPatient(address account) public view returns (bool) {\r\n    return Roles.has(patients, account);\r\n  }\r\n\r\n  // Define a function 'addPatient' that adds this role\r\n  function addPatient(address account) public onlyPatient {\r\n    _addPatient(account);\r\n  }\r\n\r\n  // Define a function 'renouncePatient' to renounce this role\r\n  function renouncePatient() public {\r\n    _removePatient(msg.sender);\r\n  }\r\n\r\n  // Define an internal function '_addPatient' to add this role, called by 'addPatient'\r\n  function _addPatient(address account) internal {\r\n    Roles.add(patients, account);\r\n    emit PatientAdded(account);\r\n  }\r\n\r\n  // Define an internal function '_removePatient' to remove this role, called by 'removePatient'\r\n  function _removePatient(address account) internal {\r\n    Roles.remove(patients, account);\r\n    emit PatientRemoved(account);\r\n  }\r\n}",
  "sourcePath": "C:\\Users\\divy maheshwari\\MernProjects\\medical\\client\\src\\contracts\\medicineaccesscontrol\\PatientRole.sol",
  "compiler": {
    "name": "solc",
    "version": "0.8.9+commit.e5eed63a.Emscripten.clang"
  },
  "schemaVersion": "3.4.3",
  "updatedAt": "2021-11-01T06:19:08.211Z",
  "devdoc": {
    "kind": "dev",
    "methods": {},
    "version": 1
  },
  "userdoc": {
    "kind": "user",
    "methods": {},
    "version": 1
  }
}