{
  "contractName": "SupplyChain",
  "abi": [
    {
      "inputs": [],
      "stateMutability": "payable",
      "type": "constructor"
    },
    {
      "anonymous": false,
      "inputs": [
        {
          "indexed": true,
          "internalType": "address",
          "name": "account",
          "type": "address"
        }
      ],
      "name": "DistributorAdded",
      "type": "event"
    },
    {
      "anonymous": false,
      "inputs": [
        {
          "indexed": true,
          "internalType": "address",
          "name": "account",
          "type": "address"
        }
      ],
      "name": "DistributorRemoved",
      "type": "event"
    },
    {
      "anonymous": false,
      "inputs": [
        {
          "indexed": false,
          "internalType": "uint256",
          "name": "upc",
          "type": "uint256"
        }
      ],
      "name": "ForSale",
      "type": "event"
    },
    {
      "anonymous": false,
      "inputs": [
        {
          "indexed": false,
          "internalType": "uint256",
          "name": "upc",
          "type": "uint256"
        }
      ],
      "name": "Made",
      "type": "event"
    },
    {
      "anonymous": false,
      "inputs": [
        {
          "indexed": true,
          "internalType": "address",
          "name": "account",
          "type": "address"
        }
      ],
      "name": "ManufacturerAdded",
      "type": "event"
    },
    {
      "anonymous": false,
      "inputs": [
        {
          "indexed": true,
          "internalType": "address",
          "name": "account",
          "type": "address"
        }
      ],
      "name": "ManufacturerRemoved",
      "type": "event"
    },
    {
      "anonymous": false,
      "inputs": [
        {
          "indexed": false,
          "internalType": "uint256",
          "name": "upc",
          "type": "uint256"
        }
      ],
      "name": "Packed",
      "type": "event"
    },
    {
      "anonymous": false,
      "inputs": [
        {
          "indexed": true,
          "internalType": "address",
          "name": "account",
          "type": "address"
        }
      ],
      "name": "PatientAdded",
      "type": "event"
    },
    {
      "anonymous": false,
      "inputs": [
        {
          "indexed": true,
          "internalType": "address",
          "name": "account",
          "type": "address"
        }
      ],
      "name": "PatientRemoved",
      "type": "event"
    },
    {
      "anonymous": false,
      "inputs": [
        {
          "indexed": true,
          "internalType": "address",
          "name": "account",
          "type": "address"
        }
      ],
      "name": "PharmacistAdded",
      "type": "event"
    },
    {
      "anonymous": false,
      "inputs": [
        {
          "indexed": true,
          "internalType": "address",
          "name": "account",
          "type": "address"
        }
      ],
      "name": "PharmacistRemoved",
      "type": "event"
    },
    {
      "anonymous": false,
      "inputs": [
        {
          "indexed": false,
          "internalType": "uint256",
          "name": "upc",
          "type": "uint256"
        }
      ],
      "name": "Purchased",
      "type": "event"
    },
    {
      "anonymous": false,
      "inputs": [
        {
          "indexed": false,
          "internalType": "uint256",
          "name": "upc",
          "type": "uint256"
        }
      ],
      "name": "Received",
      "type": "event"
    },
    {
      "anonymous": false,
      "inputs": [
        {
          "indexed": false,
          "internalType": "uint256",
          "name": "upc",
          "type": "uint256"
        }
      ],
      "name": "Shipped",
      "type": "event"
    },
    {
      "anonymous": false,
      "inputs": [
        {
          "indexed": false,
          "internalType": "uint256",
          "name": "upc",
          "type": "uint256"
        }
      ],
      "name": "Sold",
      "type": "event"
    },
    {
      "inputs": [
        {
          "internalType": "address",
          "name": "account",
          "type": "address"
        }
      ],
      "name": "addDistributor",
      "outputs": [],
      "stateMutability": "nonpayable",
      "type": "function"
    },
    {
      "inputs": [
        {
          "internalType": "address",
          "name": "account",
          "type": "address"
        }
      ],
      "name": "addManufacturer",
      "outputs": [],
      "stateMutability": "nonpayable",
      "type": "function"
    },
    {
      "inputs": [
        {
          "internalType": "address",
          "name": "account",
          "type": "address"
        }
      ],
      "name": "addPatient",
      "outputs": [],
      "stateMutability": "nonpayable",
      "type": "function"
    },
    {
      "inputs": [
        {
          "internalType": "address",
          "name": "account",
          "type": "address"
        }
      ],
      "name": "addPharmacist",
      "outputs": [],
      "stateMutability": "nonpayable",
      "type": "function"
    },
    {
      "inputs": [
        {
          "internalType": "address",
          "name": "account",
          "type": "address"
        }
      ],
      "name": "isDistributor",
      "outputs": [
        {
          "internalType": "bool",
          "name": "",
          "type": "bool"
        }
      ],
      "stateMutability": "view",
      "type": "function"
    },
    {
      "inputs": [
        {
          "internalType": "address",
          "name": "account",
          "type": "address"
        }
      ],
      "name": "isManufacturer",
      "outputs": [
        {
          "internalType": "bool",
          "name": "",
          "type": "bool"
        }
      ],
      "stateMutability": "view",
      "type": "function"
    },
    {
      "inputs": [
        {
          "internalType": "address",
          "name": "account",
          "type": "address"
        }
      ],
      "name": "isPatient",
      "outputs": [
        {
          "internalType": "bool",
          "name": "",
          "type": "bool"
        }
      ],
      "stateMutability": "view",
      "type": "function"
    },
    {
      "inputs": [
        {
          "internalType": "address",
          "name": "account",
          "type": "address"
        }
      ],
      "name": "isPharmacist",
      "outputs": [
        {
          "internalType": "bool",
          "name": "",
          "type": "bool"
        }
      ],
      "stateMutability": "view",
      "type": "function"
    },
    {
      "inputs": [],
      "name": "renounceDistributor",
      "outputs": [],
      "stateMutability": "nonpayable",
      "type": "function"
    },
    {
      "inputs": [],
      "name": "renounceManufacturer",
      "outputs": [],
      "stateMutability": "nonpayable",
      "type": "function"
    },
    {
      "inputs": [],
      "name": "renouncePatient",
      "outputs": [],
      "stateMutability": "nonpayable",
      "type": "function"
    },
    {
      "inputs": [],
      "name": "renouncePharmacist",
      "outputs": [],
      "stateMutability": "nonpayable",
      "type": "function"
    },
    {
      "inputs": [
        {
          "internalType": "uint256",
          "name": "_upc",
          "type": "uint256"
        }
      ],
      "name": "getArray",
      "outputs": [
        {
          "internalType": "bytes32[]",
          "name": "",
          "type": "bytes32[]"
        }
      ],
      "stateMutability": "view",
      "type": "function"
    },
    {
      "inputs": [
        {
          "internalType": "uint256",
          "name": "_upc",
          "type": "uint256"
        },
        {
          "internalType": "address",
          "name": "_originManufacturerID",
          "type": "address"
        },
        {
          "internalType": "string",
          "name": "_originFactoryName",
          "type": "string"
        },
        {
          "internalType": "string",
          "name": "_originFactoryInformation",
          "type": "string"
        },
        {
          "internalType": "string",
          "name": "_originFactoryLatitude",
          "type": "string"
        },
        {
          "internalType": "string",
          "name": "_originFactoryLongitude",
          "type": "string"
        },
        {
          "internalType": "string",
          "name": "_medicineNotes",
          "type": "string"
        }
      ],
      "name": "makeMedicine",
      "outputs": [],
      "stateMutability": "nonpayable",
      "type": "function"
    },
    {
      "inputs": [
        {
          "internalType": "uint256",
          "name": "_upc",
          "type": "uint256"
        },
        {
          "internalType": "bytes32",
          "name": "txn",
          "type": "bytes32"
        }
      ],
      "name": "tmake",
      "outputs": [],
      "stateMutability": "nonpayable",
      "type": "function"
    },
    {
      "inputs": [
        {
          "internalType": "uint256",
          "name": "_upc",
          "type": "uint256"
        },
        {
          "internalType": "bytes32",
          "name": "txn",
          "type": "bytes32"
        }
      ],
      "name": "tpack",
      "outputs": [],
      "stateMutability": "nonpayable",
      "type": "function"
    },
    {
      "inputs": [
        {
          "internalType": "uint256",
          "name": "_upc",
          "type": "uint256"
        },
        {
          "internalType": "bytes32",
          "name": "txn",
          "type": "bytes32"
        }
      ],
      "name": "tsell",
      "outputs": [],
      "stateMutability": "nonpayable",
      "type": "function"
    },
    {
      "inputs": [
        {
          "internalType": "uint256",
          "name": "_upc",
          "type": "uint256"
        },
        {
          "internalType": "bytes32",
          "name": "txn",
          "type": "bytes32"
        }
      ],
      "name": "tbuy",
      "outputs": [],
      "stateMutability": "nonpayable",
      "type": "function"
    },
    {
      "inputs": [
        {
          "internalType": "uint256",
          "name": "_upc",
          "type": "uint256"
        },
        {
          "internalType": "bytes32",
          "name": "txn",
          "type": "bytes32"
        }
      ],
      "name": "tship",
      "outputs": [],
      "stateMutability": "nonpayable",
      "type": "function"
    },
    {
      "inputs": [
        {
          "internalType": "uint256",
          "name": "_upc",
          "type": "uint256"
        },
        {
          "internalType": "bytes32",
          "name": "txn",
          "type": "bytes32"
        }
      ],
      "name": "trecieve",
      "outputs": [],
      "stateMutability": "nonpayable",
      "type": "function"
    },
    {
      "inputs": [
        {
          "internalType": "uint256",
          "name": "_upc",
          "type": "uint256"
        },
        {
          "internalType": "bytes32",
          "name": "txn",
          "type": "bytes32"
        }
      ],
      "name": "tpurchase",
      "outputs": [],
      "stateMutability": "nonpayable",
      "type": "function"
    },
    {
      "inputs": [
        {
          "internalType": "uint256",
          "name": "_upc",
          "type": "uint256"
        }
      ],
      "name": "packMedicine",
      "outputs": [],
      "stateMutability": "nonpayable",
      "type": "function"
    },
    {
      "inputs": [
        {
          "internalType": "uint256",
          "name": "_upc",
          "type": "uint256"
        },
        {
          "internalType": "uint256",
          "name": "_price",
          "type": "uint256"
        }
      ],
      "name": "sellMedicine",
      "outputs": [],
      "stateMutability": "nonpayable",
      "type": "function"
    },
    {
      "inputs": [
        {
          "internalType": "uint256",
          "name": "_upc",
          "type": "uint256"
        }
      ],
      "name": "buyMedicine",
      "outputs": [],
      "stateMutability": "payable",
      "type": "function"
    },
    {
      "inputs": [
        {
          "internalType": "uint256",
          "name": "_upc",
          "type": "uint256"
        }
      ],
      "name": "shipMedicine",
      "outputs": [],
      "stateMutability": "nonpayable",
      "type": "function"
    },
    {
      "inputs": [
        {
          "internalType": "uint256",
          "name": "_upc",
          "type": "uint256"
        }
      ],
      "name": "receiveMedicine",
      "outputs": [],
      "stateMutability": "nonpayable",
      "type": "function"
    },
    {
      "inputs": [
        {
          "internalType": "uint256",
          "name": "_upc",
          "type": "uint256"
        }
      ],
      "name": "purchaseMedicine",
      "outputs": [],
      "stateMutability": "nonpayable",
      "type": "function"
    },
    {
      "inputs": [
        {
          "internalType": "uint256",
          "name": "_upc",
          "type": "uint256"
        }
      ],
      "name": "fetchMedicineBufferOne",
      "outputs": [
        {
          "internalType": "address",
          "name": "ownerID",
          "type": "address"
        },
        {
          "internalType": "address",
          "name": "originManufacturerID",
          "type": "address"
        },
        {
          "internalType": "string",
          "name": "originFactoryName",
          "type": "string"
        },
        {
          "internalType": "string",
          "name": "originFactoryInformation",
          "type": "string"
        },
        {
          "internalType": "string",
          "name": "originFactoryLatitude",
          "type": "string"
        },
        {
          "internalType": "string",
          "name": "originFactoryLongitude",
          "type": "string"
        }
      ],
      "stateMutability": "view",
      "type": "function"
    },
    {
      "inputs": [
        {
          "internalType": "uint256",
          "name": "_upc",
          "type": "uint256"
        }
      ],
      "name": "fetchMedicineBufferTwo",
      "outputs": [
        {
          "internalType": "string",
          "name": "medicineNotes",
          "type": "string"
        },
        {
          "internalType": "uint256",
          "name": "medicinePrice",
          "type": "uint256"
        },
        {
          "internalType": "enum SupplyChain.State",
          "name": "medicineState",
          "type": "uint8"
        },
        {
          "internalType": "address",
          "name": "distributorID",
          "type": "address"
        },
        {
          "internalType": "address",
          "name": "pharmacistID",
          "type": "address"
        },
        {
          "internalType": "address",
          "name": "patientID",
          "type": "address"
        }
      ],
      "stateMutability": "view",
      "type": "function"
    },
    {
      "inputs": [
        {
          "internalType": "uint256",
          "name": "_upc",
          "type": "uint256"
        }
      ],
      "name": "fetchMedicineBufferThree",
      "outputs": [
        {
          "internalType": "uint256",
          "name": "medicineSKU",
          "type": "uint256"
        },
        {
          "internalType": "uint256",
          "name": "medicineUPC",
          "type": "uint256"
        },
        {
          "internalType": "uint256",
          "name": "medicineID",
          "type": "uint256"
        }
      ],
      "stateMutability": "view",
      "type": "function"
    }
  ],
  "bytecode": "0x608060405262000015336200009f60201b60201c565b6200002633620000fd60201b60201c565b62000037336200015b60201b60201c565b6200004833620001b960201b60201c565b33600460006101000a81548173ffffffffffffffffffffffffffffffffffffffff021916908373ffffffffffffffffffffffffffffffffffffffff1602179055506000600681905550600060058190555062000326565b620000b76000826200021760201b62001b7c1760201c565b8073ffffffffffffffffffffffffffffffffffffffff167f5a4264410853372bdd7255ebc9624cb523fc039cd6f9f1855165194738125f6360405160405180910390a250565b620001156001826200021760201b62001b7c1760201c565b8073ffffffffffffffffffffffffffffffffffffffff167fa58cff07db0adda3ab7a40bd2f18ab57210bf38391a52ffd2e8eee6b8bdec71a60405160405180910390a250565b620001736002826200021760201b62001b7c1760201c565b8073ffffffffffffffffffffffffffffffffffffffff167f561138658ca49a8540dc70dcfe64c9026c1c5b9344642242dd6562970f9c127860405160405180910390a250565b620001d16003826200021760201b62001b7c1760201c565b8073ffffffffffffffffffffffffffffffffffffffff167fddbf200aa634dc3fb81cfd68583dd1040d1c751d335e1d86b631bde3e977fea860405160405180910390a250565b600073ffffffffffffffffffffffffffffffffffffffff168173ffffffffffffffffffffffffffffffffffffffff1614156200025257600080fd5b620002648282620002cd60201b60201c565b156200026f57600080fd5b60018260000160008373ffffffffffffffffffffffffffffffffffffffff1673ffffffffffffffffffffffffffffffffffffffff16815260200190815260200160002060006101000a81548160ff0219169083151502179055505050565b60008260000160008373ffffffffffffffffffffffffffffffffffffffff1673ffffffffffffffffffffffffffffffffffffffff16815260200190815260200160002060009054906101000a900460ff16905092915050565b61299b80620003366000396000f3fe6080604052600436106101cd5760003560e01c806372cf2f24116100f7578063b610783d11610095578063de07f34e11610064578063de07f34e14610672578063e17a9c8c14610689578063f7f78317146106b2578063faac9e79146106db576101cd565b8063b610783d146105ce578063c09e2693146105f7578063c6d4145314610620578063d968086014610649576101cd565b80638f0c86fa116100d15780638f0c86fa146104ee5780638f9c79ed1461052b578063ab35ec6314610568578063ab77f959146105a5576101cd565b806372cf2f241461047157806381a07c361461049a57806382946ee2146104b1576101cd565b80633fe7cff71161016f57806369c5bc0c1161013e57806369c5bc0c146103cd5780636d263ceb146103f657806371927d991461041f5780637250e22414610448576101cd565b80633fe7cff71461034d5780635ae63247146103765780635f8a5afa1461038d578063644241db146103b6576101cd565b806317d4a491116101ab57806317d4a491146102665780632bc3f465146102a35780633800765f146102e25780633b7e1e8614610324576101cd565b806305a73d28146101d25780630f9a1210146101fb5780631474b95d1461023d575b600080fd5b3480156101de57600080fd5b506101f960048036038101906101f491906120d7565b6106f7565b005b34801561020757600080fd5b50610222600480360381019061021d9190612117565b61074a565b604051610234969594939291906122a4565b60405180910390f35b34801561024957600080fd5b50610264600480360381019061025f919061230c565b6108eb565b005b34801561027257600080fd5b5061028d60048036038101906102889190612378565b6109e8565b60405161029a91906123c0565b60405180910390f35b3480156102af57600080fd5b506102ca60048036038101906102c59190612117565b6109fc565b6040516102d9939291906123db565b60405180910390f35b3480156102ee57600080fd5b5061030960048036038101906103049190612117565b610a53565b60405161031b96959493929190612412565b60405180910390f35b34801561033057600080fd5b5061034b60048036038101906103469190612117565b610d67565b005b34801561035957600080fd5b50610374600480360381019061036f9190612117565b610e48565b005b34801561038257600080fd5b5061038b610f7e565b005b34801561039957600080fd5b506103b460048036038101906103af9190612378565b610f89565b005b3480156103c257600080fd5b506103cb610fa7565b005b3480156103d957600080fd5b506103f460048036038101906103ef91906120d7565b610fb2565b005b34801561040257600080fd5b5061041d60048036038101906104189190612378565b611005565b005b34801561042b57600080fd5b50610446600480360381019061044191906120d7565b611023565b005b34801561045457600080fd5b5061046f600480360381019061046a9190612378565b611076565b005b34801561047d57600080fd5b5061049860048036038101906104939190612117565b611094565b005b3480156104a657600080fd5b506104af6111ca565b005b3480156104bd57600080fd5b506104d860048036038101906104d39190612378565b6111d5565b6040516104e591906123c0565b60405180910390f35b3480156104fa57600080fd5b5061051560048036038101906105109190612378565b6111e9565b60405161052291906123c0565b60405180910390f35b34801561053757600080fd5b50610552600480360381019061054d9190612378565b6111fd565b60405161055f91906123c0565b60405180910390f35b34801561057457600080fd5b5061058f600480360381019061058a9190612117565b611211565b60405161059c919061254d565b60405180910390f35b3480156105b157600080fd5b506105cc60048036038101906105c791906126a4565b611291565b005b3480156105da57600080fd5b506105f560048036038101906105f091906120d7565b6116aa565b005b34801561060357600080fd5b5061061e60048036038101906106199190612378565b6116fd565b005b34801561062c57600080fd5b5061064760048036038101906106429190612117565b61171b565b005b34801561065557600080fd5b50610670600480360381019061066b91906120d7565b6118a0565b005b34801561067e57600080fd5b506106876118f3565b005b34801561069557600080fd5b506106b060048036038101906106ab91906120d7565b6118fe565b005b3480156106be57600080fd5b506106d960048036038101906106d491906120d7565b611951565b005b6106f560048036038101906106f09190612117565b6119a4565b005b610700336111d5565b61070957600080fd5b600860008381526020019081526020016000206000018190806001815401808255809150506001900390600052602060002001600090919091909150555050565b606060008060008060006007600088815260200190815260200160002060090160076000898152602001908152602001600020600a0154600760008a8152602001908152602001600020600b0160009054906101000a900460ff16600760008b8152602001908152602001600020600b0160019054906101000a900473ffffffffffffffffffffffffffffffffffffffff16600760008c8152602001908152602001600020600c0160009054906101000a900473ffffffffffffffffffffffffffffffffffffffff16600760008d8152602001908152602001600020600d0160009054906101000a900473ffffffffffffffffffffffffffffffffffffffff1685805461085690612801565b80601f016020809104026020016040519081016040528092919081815260200182805461088290612801565b80156108cf5780601f106108a4576101008083540402835291602001916108cf565b820191906000526020600020905b8154815290600101906020018083116108b257829003601f168201915b5050505050955095509550955095509550955091939550919395565b8160016006811115610900576108ff6121ec565b5b60076000838152602001908152602001600020600b0160009054906101000a900460ff166006811115610936576109356121ec565b5b1461094057600080fd5b610949336109e8565b61095257600080fd5b600260076000858152602001908152602001600020600b0160006101000a81548160ff0219169083600681111561098c5761098b6121ec565b5b02179055508160076000858152602001908152602001600020600a01819055507fa96ae0fc3224ebd79eebfe54bd130cc9cb94416cddd1f2386115e00b72532468836040516109db9190612833565b60405180910390a1505050565b60006109f5600283611c28565b9050919050565b60008060006007600085815260200190815260200160002060000154600760008681526020019081526020016000206001015460076000878152602001908152602001600020600801549250925092509193909250565b6000806060806060806007600088815260200190815260200160002060020160009054906101000a900473ffffffffffffffffffffffffffffffffffffffff166007600089815260200190815260200160002060030160009054906101000a900473ffffffffffffffffffffffffffffffffffffffff16600760008a8152602001908152602001600020600401600760008b8152602001908152602001600020600501600760008c8152602001908152602001600020600601600760008d8152602001908152602001600020600701838054610b2e90612801565b80601f0160208091040260200160405190810160405280929190818152602001828054610b5a90612801565b8015610ba75780601f10610b7c57610100808354040283529160200191610ba7565b820191906000526020600020905b815481529060010190602001808311610b8a57829003601f168201915b50505050509350828054610bba90612801565b80601f0160208091040260200160405190810160405280929190818152602001828054610be690612801565b8015610c335780601f10610c0857610100808354040283529160200191610c33565b820191906000526020600020905b815481529060010190602001808311610c1657829003601f168201915b50505050509250818054610c4690612801565b80601f0160208091040260200160405190810160405280929190818152602001828054610c7290612801565b8015610cbf5780601f10610c9457610100808354040283529160200191610cbf565b820191906000526020600020905b815481529060010190602001808311610ca257829003601f168201915b50505050509150808054610cd290612801565b80601f0160208091040260200160405190810160405280929190818152602001828054610cfe90612801565b8015610d4b5780601f10610d2057610100808354040283529160200191610d4b565b820191906000526020600020905b815481529060010190602001808311610d2e57829003601f168201915b5050505050905095509550955095509550955091939550919395565b8060006006811115610d7c57610d7b6121ec565b5b60076000838152602001908152602001600020600b0160009054906101000a900460ff166006811115610db257610db16121ec565b5b14610dbc57600080fd5b610dc5336109e8565b610dce57600080fd5b600160076000848152602001908152602001600020600b0160006101000a81548160ff02191690836006811115610e0857610e076121ec565b5b02179055507f9b3b66e2380b690bae22c73ef1428fb0c91e72fe14a4b6defa13035214187aff82604051610e3c9190612833565b60405180910390a15050565b8060046006811115610e5d57610e5c6121ec565b5b60076000838152602001908152602001600020600b0160009054906101000a900460ff166006811115610e9357610e926121ec565b5b14610e9d57600080fd5b610ea6336111d5565b610eaf57600080fd5b3360076000848152602001908152602001600020600c0160006101000a81548173ffffffffffffffffffffffffffffffffffffffff021916908373ffffffffffffffffffffffffffffffffffffffff160217905550600560076000848152602001908152602001600020600b0160006101000a81548160ff02191690836006811115610f3e57610f3d6121ec565b5b02179055507fa8142743f8f70a4c26f3691cf4ed59718381fb2f18070ec52be1f1022d85555782604051610f729190612833565b60405180910390a15050565b610f8733611c81565b565b610f92336109e8565b610f9b57600080fd5b610fa481611cd2565b50565b610fb033611d23565b565b610fbb336111fd565b610fc457600080fd5b600860008381526020019081526020016000206000018190806001815401808255809150506001900390600052602060002001600090919091909150555050565b61100e336111fd565b61101757600080fd5b61102081611d74565b50565b61102c336109e8565b61103557600080fd5b600860008381526020019081526020016000206000018190806001815401808255809150506001900390600052602060002001600090919091909150555050565b61107f336111e9565b61108857600080fd5b61109181611dc5565b50565b80600560068111156110a9576110a86121ec565b5b60076000838152602001908152602001600020600b0160009054906101000a900460ff1660068111156110df576110de6121ec565b5b146110e957600080fd5b6110f2336111fd565b6110fb57600080fd5b3360076000848152602001908152602001600020600d0160006101000a81548173ffffffffffffffffffffffffffffffffffffffff021916908373ffffffffffffffffffffffffffffffffffffffff160217905550600660076000848152602001908152602001600020600b0160006101000a81548160ff0219169083600681111561118a576111896121ec565b5b02179055507f653d56639fee6b566a5c804764e9689de38645f0b733df89a36a1b7b42173dd8826040516111be9190612833565b60405180910390a15050565b6111d333611e16565b565b60006111e2600083611c28565b9050919050565b60006111f6600383611c28565b9050919050565b600061120a600183611c28565b9050919050565b606061121c336111fd565b61122557600080fd5b6008600083815260200190815260200160002060000180548060200260200160405190810160405280929190818152602001828054801561128557602002820191906000526020600020905b815481526020019060010190808311611271575b50505050509050919050565b61129a336109e8565b6112a357600080fd5b6000604051806101e0016040528060016006546112c0919061287d565b81526020018981526020018873ffffffffffffffffffffffffffffffffffffffff1681526020018873ffffffffffffffffffffffffffffffffffffffff16815260200187815260200186815260200185815260200184815260200189600654611329919061287d565b8152602001838152602001600081526020016000600681111561134f5761134e6121ec565b5b8152602001600073ffffffffffffffffffffffffffffffffffffffff168152602001600073ffffffffffffffffffffffffffffffffffffffff168152602001600073ffffffffffffffffffffffffffffffffffffffff16815250905080600760008a8152602001908152602001600020600082015181600001556020820151816001015560408201518160020160006101000a81548173ffffffffffffffffffffffffffffffffffffffff021916908373ffffffffffffffffffffffffffffffffffffffff16021790555060608201518160030160006101000a81548173ffffffffffffffffffffffffffffffffffffffff021916908373ffffffffffffffffffffffffffffffffffffffff160217905550608082015181600401908051906020019061147d929190611fb4565b5060a082015181600501908051906020019061149a929190611fb4565b5060c08201518160060190805190602001906114b7929190611fb4565b5060e08201518160070190805190602001906114d4929190611fb4565b5061010082015181600801556101208201518160090190805190602001906114fd929190611fb4565b5061014082015181600a015561016082015181600b0160006101000a81548160ff02191690836006811115611535576115346121ec565b5b021790555061018082015181600b0160016101000a81548173ffffffffffffffffffffffffffffffffffffffff021916908373ffffffffffffffffffffffffffffffffffffffff1602179055506101a082015181600c0160006101000a81548173ffffffffffffffffffffffffffffffffffffffff021916908373ffffffffffffffffffffffffffffffffffffffff1602179055506101c082015181600d0160006101000a81548173ffffffffffffffffffffffffffffffffffffffff021916908373ffffffffffffffffffffffffffffffffffffffff1602179055509050506000600760008a8152602001908152602001600020600b0160006101000a81548160ff0219169083600681111561164f5761164e6121ec565b5b02179055506001600654611663919061287d565b6006819055507feb8109592a383473c76afa62041a6dbabac0ca80d859bbdffb13c5a70c454b90886040516116989190612833565b60405180910390a15050505050505050565b6116b3336109e8565b6116bc57600080fd5b600860008381526020019081526020016000206000018190806001815401808255809150506001900390600052602060002001600090919091909150555050565b611706336111d5565b61170f57600080fd5b61171881611e67565b50565b80600360068111156117305761172f6121ec565b5b60076000838152602001908152602001600020600b0160009054906101000a900460ff166006811115611766576117656121ec565b5b1461177057600080fd5b611779336109e8565b61178257600080fd5b3373ffffffffffffffffffffffffffffffffffffffff166007600084815260200190815260200160002060030160009054906101000a900473ffffffffffffffffffffffffffffffffffffffff1673ffffffffffffffffffffffffffffffffffffffff1614611826576040517f08c379a000000000000000000000000000000000000000000000000000000000815260040161181d90612945565b60405180910390fd5b600460076000848152602001908152602001600020600b0160006101000a81548160ff021916908360068111156118605761185f6121ec565b5b02179055507ff00b9a5725b80c54016f42114f6ed7792d22eecb116011c4afac29c57bef6c95826040516118949190612833565b60405180910390a15050565b6118a9336109e8565b6118b257600080fd5b600860008381526020019081526020016000206000018190806001815401808255809150506001900390600052602060002001600090919091909150555050565b6118fc33611eb8565b565b611907336111e9565b61191057600080fd5b600860008381526020019081526020016000206000018190806001815401808255809150506001900390600052602060002001600090919091909150555050565b61195a336109e8565b61196357600080fd5b600860008381526020019081526020016000206000018190806001815401808255809150506001900390600052602060002001600090919091909150555050565b80600260068111156119b9576119b86121ec565b5b60076000838152602001908152602001600020600b0160009054906101000a900460ff1660068111156119ef576119ee6121ec565b5b146119f957600080fd5b60076000838152602001908152602001600020600a015480341015611a1d57600080fd5b611a26336111e9565b611a2f57600080fd5b600360076000858152602001908152602001600020600b0160006101000a81548160ff02191690836006811115611a6957611a686121ec565b5b02179055503360076000858152602001908152602001600020600b0160016101000a81548173ffffffffffffffffffffffffffffffffffffffff021916908373ffffffffffffffffffffffffffffffffffffffff1602179055506007600084815260200190815260200160002060030160009054906101000a900473ffffffffffffffffffffffffffffffffffffffff1673ffffffffffffffffffffffffffffffffffffffff166108fc349081150290604051600060405180830381858888f19350505050158015611b3f573d6000803e3d6000fd5b507f92f64ca637d023f354075a4be751b169c1a8a9ccb6d33cdd0cb352054399572783604051611b6f9190612833565b60405180910390a1505050565b600073ffffffffffffffffffffffffffffffffffffffff168173ffffffffffffffffffffffffffffffffffffffff161415611bb657600080fd5b611bc08282611c28565b15611bca57600080fd5b60018260000160008373ffffffffffffffffffffffffffffffffffffffff1673ffffffffffffffffffffffffffffffffffffffff16815260200190815260200160002060006101000a81548160ff0219169083151502179055505050565b60008260000160008373ffffffffffffffffffffffffffffffffffffffff1673ffffffffffffffffffffffffffffffffffffffff16815260200190815260200160002060009054906101000a900460ff16905092915050565b611c8c600082611f09565b8073ffffffffffffffffffffffffffffffffffffffff167f9d17ec7e57a5118cf27abf33370bcc6f007c27a9706ab4cc473a76fe552447d260405160405180910390a250565b611cdd600282611b7c565b8073ffffffffffffffffffffffffffffffffffffffff167f561138658ca49a8540dc70dcfe64c9026c1c5b9344642242dd6562970f9c127860405160405180910390a250565b611d2e600382611f09565b8073ffffffffffffffffffffffffffffffffffffffff167f126174f6cf49c81cdb4a9214c6b8f037bef55b4ec31e4fc776cea2a1c8a88d5960405160405180910390a250565b611d7f600182611b7c565b8073ffffffffffffffffffffffffffffffffffffffff167fa58cff07db0adda3ab7a40bd2f18ab57210bf38391a52ffd2e8eee6b8bdec71a60405160405180910390a250565b611dd0600382611b7c565b8073ffffffffffffffffffffffffffffffffffffffff167fddbf200aa634dc3fb81cfd68583dd1040d1c751d335e1d86b631bde3e977fea860405160405180910390a250565b611e21600182611f09565b8073ffffffffffffffffffffffffffffffffffffffff167f053a4badf166f01c4b02f6bcb71d2d67734470d0866282e291e73001aa25c76960405160405180910390a250565b611e72600082611b7c565b8073ffffffffffffffffffffffffffffffffffffffff167f5a4264410853372bdd7255ebc9624cb523fc039cd6f9f1855165194738125f6360405160405180910390a250565b611ec3600282611f09565b8073ffffffffffffffffffffffffffffffffffffffff167f2fed5abf6a80d6dfe30b4895481b2fc5d7dce5f8f7b931832f4a2947d5040c7f60405160405180910390a250565b600073ffffffffffffffffffffffffffffffffffffffff168173ffffffffffffffffffffffffffffffffffffffff161415611f4357600080fd5b611f4d8282611c28565b611f5657600080fd5b60008260000160008373ffffffffffffffffffffffffffffffffffffffff1673ffffffffffffffffffffffffffffffffffffffff16815260200190815260200160002060006101000a81548160ff0219169083151502179055505050565b828054611fc090612801565b90600052602060002090601f016020900481019282611fe25760008555612029565b82601f10611ffb57805160ff1916838001178555612029565b82800160010185558215612029579182015b8281111561202857825182559160200191906001019061200d565b5b509050612036919061203a565b5090565b5b8082111561205357600081600090555060010161203b565b5090565b6000604051905090565b600080fd5b600080fd5b6000819050919050565b61207e8161206b565b811461208957600080fd5b50565b60008135905061209b81612075565b92915050565b6000819050919050565b6120b4816120a1565b81146120bf57600080fd5b50565b6000813590506120d1816120ab565b92915050565b600080604083850312156120ee576120ed612061565b5b60006120fc8582860161208c565b925050602061210d858286016120c2565b9150509250929050565b60006020828403121561212d5761212c612061565b5b600061213b8482850161208c565b91505092915050565b600081519050919050565b600082825260208201905092915050565b60005b8381101561217e578082015181840152602081019050612163565b8381111561218d576000848401525b50505050565b6000601f19601f8301169050919050565b60006121af82612144565b6121b9818561214f565b93506121c9818560208601612160565b6121d281612193565b840191505092915050565b6121e68161206b565b82525050565b7f4e487b7100000000000000000000000000000000000000000000000000000000600052602160045260246000fd5b6007811061222c5761222b6121ec565b5b50565b600081905061223d8261221b565b919050565b600061224d8261222f565b9050919050565b61225d81612242565b82525050565b600073ffffffffffffffffffffffffffffffffffffffff82169050919050565b600061228e82612263565b9050919050565b61229e81612283565b82525050565b600060c08201905081810360008301526122be81896121a4565b90506122cd60208301886121dd565b6122da6040830187612254565b6122e76060830186612295565b6122f46080830185612295565b61230160a0830184612295565b979650505050505050565b6000806040838503121561232357612322612061565b5b60006123318582860161208c565b92505060206123428582860161208c565b9150509250929050565b61235581612283565b811461236057600080fd5b50565b6000813590506123728161234c565b92915050565b60006020828403121561238e5761238d612061565b5b600061239c84828501612363565b91505092915050565b60008115159050919050565b6123ba816123a5565b82525050565b60006020820190506123d560008301846123b1565b92915050565b60006060820190506123f060008301866121dd565b6123fd60208301856121dd565b61240a60408301846121dd565b949350505050565b600060c0820190506124276000830189612295565b6124346020830188612295565b818103604083015261244681876121a4565b9050818103606083015261245a81866121a4565b9050818103608083015261246e81856121a4565b905081810360a083015261248281846121a4565b9050979650505050505050565b600081519050919050565b600082825260208201905092915050565b6000819050602082019050919050565b6124c4816120a1565b82525050565b60006124d683836124bb565b60208301905092915050565b6000602082019050919050565b60006124fa8261248f565b612504818561249a565b935061250f836124ab565b8060005b8381101561254057815161252788826124ca565b9750612532836124e2565b925050600181019050612513565b5085935050505092915050565b6000602082019050818103600083015261256781846124ef565b905092915050565b600080fd5b600080fd5b7f4e487b7100000000000000000000000000000000000000000000000000000000600052604160045260246000fd5b6125b182612193565b810181811067ffffffffffffffff821117156125d0576125cf612579565b5b80604052505050565b60006125e3612057565b90506125ef82826125a8565b919050565b600067ffffffffffffffff82111561260f5761260e612579565b5b61261882612193565b9050602081019050919050565b82818337600083830152505050565b6000612647612642846125f4565b6125d9565b90508281526020810184848401111561266357612662612574565b5b61266e848285612625565b509392505050565b600082601f83011261268b5761268a61256f565b5b813561269b848260208601612634565b91505092915050565b600080600080600080600060e0888a0312156126c3576126c2612061565b5b60006126d18a828b0161208c565b97505060206126e28a828b01612363565b965050604088013567ffffffffffffffff81111561270357612702612066565b5b61270f8a828b01612676565b955050606088013567ffffffffffffffff8111156127305761272f612066565b5b61273c8a828b01612676565b945050608088013567ffffffffffffffff81111561275d5761275c612066565b5b6127698a828b01612676565b93505060a088013567ffffffffffffffff81111561278a57612789612066565b5b6127968a828b01612676565b92505060c088013567ffffffffffffffff8111156127b7576127b6612066565b5b6127c38a828b01612676565b91505092959891949750929550565b7f4e487b7100000000000000000000000000000000000000000000000000000000600052602260045260246000fd5b6000600282049050600182168061281957607f821691505b6020821081141561282d5761282c6127d2565b5b50919050565b600060208201905061284860008301846121dd565b92915050565b7f4e487b7100000000000000000000000000000000000000000000000000000000600052601160045260246000fd5b60006128888261206b565b91506128938361206b565b9250827fffffffffffffffffffffffffffffffffffffffffffffffffffffffffffffffff038211156128c8576128c761284e565b5b828201905092915050565b7f4d616e756661637475726572732063616e2073686970206f6e6c79206d65646960008201527f63696e6573206279207468656d00000000000000000000000000000000000000602082015250565b600061292f602d8361214f565b915061293a826128d3565b604082019050919050565b6000602082019050818103600083015261295e81612922565b905091905056fea26469706673582212207bd42c03d99467269cf9c561efd53712412c01b634743425d236ee0cbc76235c64736f6c63430008090033",
  "immutableReferences": {},
  "source": "// SPDX-License-Identifier: GPL-3.0\r\npragma solidity ^0.8.9;\r\n\r\nimport \"../medicineaccesscontrol/Roles.sol\";\r\nimport \"../medicineaccesscontrol/DistributorRole.sol\";\r\nimport \"../medicineaccesscontrol/ManufacturerRole.sol\";\r\nimport \"../medicineaccesscontrol/PatientRole.sol\";\r\nimport \"../medicineaccesscontrol/PharmacistRole.sol\";\r\nimport \"../medicinecore/Ownable.sol\";\r\n\r\n// Define a contract 'Supplychain'\r\n\r\ncontract SupplyChain is PharmacistRole, PatientRole, ManufacturerRole, DistributorRole {\r\n\r\n  // Define 'owner'\r\n  address owner;\r\n\r\n  // Define a variable called 'upc' for Universal Product Code (UPC)\r\n  uint  upc;\r\n\r\n  // Define a variable called 'sku' for Stock Keeping Unit (SKU)\r\n  uint  sku;\r\n\r\n  \r\n  \r\n  // Define enum 'State' with the following values:\r\n  enum State \r\n  { \r\n    Made,       \r\n    Packed,     \r\n    ForSale,    \r\n    Sold,       \r\n    Shipped,    \r\n    Received,   \r\n    Purchased \r\n  }\r\n\r\n  State constant defaultState = State.Made;\r\n  struct Stn{\r\n    bytes32[] structArray; \r\n}\r\n\r\n  // Define a struct 'Medicine' with the following fields:\r\n  struct Medicine {\r\n    uint    sku;  // Stock Keeping Unit (SKU)\r\n    uint    upc; // Universal Product Code (UPC), generated by the Manufacturer, goes on the package, can be verified by the Patient\r\n    address ownerID;  // Metamask-Ethereum address of the current owner as the medicine moves through 8 stages\r\n    address originManufacturerID; // Metamask-Ethereum address of the Manufacturer\r\n    string  originFactoryName; // Manufacturer Name\r\n    string  originFactoryInformation;  // Manufacturer Information\r\n    string  originFactoryLatitude; // Factory Latitude\r\n    string  originFactoryLongitude;  // Factory Longitude\r\n    uint    medicineID;  // Product ID potentially a combination of upc + sku\r\n    string  medicineNotes; // Product Notes\r\n    uint    medicinePrice; // Product Price\r\n    State   medicineState;  // Product State as represented in the enum above\r\n    address distributorID;  // Metamask-Ethereum address of the Distributor\r\n    address pharmacistID; // Metamask-Ethereum address of the Pharmacist\r\n    address patientID; // Metamask-Ethereum address of the Patient\r\n  }\r\n\r\n  // Define 8 events with the same 7 state values and accept 'upc' as input argument\r\n  event Made(uint upc);\r\n  event Packed(uint upc);\r\n  event ForSale(uint upc);\r\n  event Sold(uint upc);\r\n  event Shipped(uint upc);\r\n  event Received(uint upc);\r\n  event Purchased(uint upc);\r\n\r\n  // Define a public mapping 'medicines' that maps the UPC to a Medicine.\r\n  mapping (uint => Medicine) medicines;\r\n\r\n  // Define a public mapping 'medicinesHistory' that maps the UPC to an array of TxHash, \r\n  // that track its journey through the supply chain -- to be sent from DApp.\r\n  mapping (uint => Stn) medicinesHistory;\r\n\r\n  // Define a modifer that checks to see if msg.sender == owner of the contract\r\n  modifier onlyOwner() {\r\n    require(msg.sender == owner);\r\n    _;\r\n  }\r\n\r\n  // Define a modifer that verifies the Caller\r\n  // modifier verifyCaller (address _address) {\r\n  //   require(msg.sender == _address); \r\n  //   _;\r\n  // }\r\n\r\n  // Define a modifier that checks if the paid amount is sufficient to cover the price\r\n  modifier paidEnough(uint _price) { \r\n    require(msg.value >= _price); \r\n    _;\r\n  }\r\n  \r\n  // Define a modifier that checks the price and refunds the remaining balance\r\n  // modifier checkValue(uint _upc) {\r\n  //   _;\r\n  //   uint _price = medicines[_upc].medicinePrice;\r\n  //   uint amountToReturn = msg.value - _price;\r\n  //   medicines[_upc].patientID.transfer(amountToReturn);\r\n  // }\r\n\r\n  // Define a modifier that checks if an medicine.state of a upc is Made\r\n  modifier made(uint _upc) {\r\n    require(medicines[_upc].medicineState == State.Made);\r\n    _;\r\n  }\r\n  \r\n  // Define a modifier that checks if an medicine.state of a upc is Packed\r\n  modifier packed(uint _upc) {\r\n    require(medicines[_upc].medicineState == State.Packed);\r\n\r\n    _;\r\n  }\r\n\r\n  // Define a modifier that checks if an medicine.state of a upc is ForSale\r\n  modifier forSale(uint _upc) {\r\n    require(medicines[_upc].medicineState == State.ForSale);\r\n\r\n    _;\r\n  }\r\n\r\n  // Define a modifier that checks if an medicine.state of a upc is Sold\r\n  modifier sold(uint _upc) {\r\n    require(medicines[_upc].medicineState == State.Sold);\r\n\r\n    _;\r\n  }\r\n  \r\n  // Define a modifier that checks if an medicine.state of a upc is Shipped\r\n  modifier shipped(uint _upc) {\r\n    require(medicines[_upc].medicineState == State.Shipped);\r\n\r\n    _;\r\n  }\r\n\r\n  // Define a modifier that checks if an medicine.state of a upc is Received\r\n  modifier received(uint _upc) {\r\n    require(medicines[_upc].medicineState == State.Received);\r\n\r\n    _;\r\n  }\r\n\r\n  // Define a modifier that checks if an medicine.state of a upc is Purchased\r\n  modifier purchased(uint _upc) {\r\n    require(medicines[_upc].medicineState == State.Purchased);\r\n    _;\r\n  }\r\n\r\n  // In the constructor set 'owner' to the address that instantiated the contract\r\n  // and set 'sku' to 1\r\n  // and set 'upc' to 1\r\n  constructor() payable {\r\n    owner = msg.sender;\r\n    sku = 0;\r\n    upc = 0;\r\n  }\r\n  function getArray(uint _upc) onlyPatient public view returns (bytes32[] memory) {\r\n    return medicinesHistory[_upc].structArray;\r\n}\r\n\r\n  // Define a function 'kill' if required\r\n  // function kill() public {\r\n  //   if (msg.sender == owner) {\r\n  //     selfdestruct(owner);\r\n  //   }\r\n  // }\r\n\r\n  // Define a function 'makeMedicine' that allows a manufacturer to mark a medicine 'Made'\r\n  function makeMedicine(uint _upc, address _originManufacturerID, string memory _originFactoryName, string memory _originFactoryInformation, string memory  _originFactoryLatitude, string memory  _originFactoryLongitude, string memory  _medicineNotes) public\r\n  onlyManufacturer\r\n  {\r\n    // Add the new medicine as part of medicines\r\n    Medicine memory temp_medicine = Medicine({\r\n      sku:sku + 1,\r\n      upc:_upc,\r\n      ownerID:_originManufacturerID,\r\n      originManufacturerID:_originManufacturerID,\r\n      originFactoryName:_originFactoryName,\r\n      originFactoryInformation:_originFactoryInformation,\r\n      originFactoryLatitude:_originFactoryLatitude,\r\n      originFactoryLongitude:_originFactoryLongitude,\r\n      medicineID:sku+_upc,\r\n      medicineNotes:_medicineNotes,\r\n      medicineState:State.Made,\r\n      medicinePrice:0,\r\n      distributorID:address(0),\r\n      pharmacistID:address(0),\r\n      patientID:address(0)\r\n      });\r\n    medicines[_upc] = temp_medicine;\r\n    medicines[_upc].medicineState = State.Made;\r\n\r\n// uint    sku;  // Stock Keeping Unit (SKU)\r\n//     uint    upc; // Universal Product Code (UPC), generated by the Manufacturer, goes on the package, can be verified by the Patient\r\n//     address ownerID;  // Metamask-Ethereum address of the current owner as the medicine moves through 8 stages\r\n//     address originManufacturerID; // Metamask-Ethereum address of the Manufacturer\r\n//     string  originFactoryName; // Manufacturer Name\r\n//     string  originFactoryInformation;  // Manufacturer Information\r\n//     string  originFactoryLatitude; // Factory Latitude\r\n//     string  originFactoryLongitude;  // Factory Longitude\r\n//     uint    medicineID;  // Product ID potentially a combination of upc + sku\r\n//     string  medicineNotes; // Product Notes\r\n//     uint    medicinePrice; // Product Price\r\n//     State   medicineState;  // Product State as represented in the enum above\r\n//     address distributorID;  // Metamask-Ethereum address of the Distributor\r\n//     address pharmacistID; // Metamask-Ethereum address of the Pharmacist\r\n//     address patientID; // Metamask-Ethereum address of the Patient\r\n\r\n\r\n\r\n\r\n    // Increment sku\r\n    sku = sku + 1;\r\n    // Emit the appropriate event\r\n\r\n    emit Made(_upc);\r\n  }\r\n\r\n  function tmake(uint _upc,bytes32 txn) public onlyManufacturer{\r\n    medicinesHistory[_upc].structArray.push(txn);\r\n  }\r\n   function tpack(uint _upc,bytes32 txn) public onlyManufacturer{\r\n    medicinesHistory[_upc].structArray.push(txn);\r\n  }\r\n   function tsell(uint _upc,bytes32 txn) public onlyManufacturer{\r\n    medicinesHistory[_upc].structArray.push(txn);\r\n  }\r\n   function tbuy(uint _upc,bytes32 txn) public onlyDistributor{\r\n    medicinesHistory[_upc].structArray.push(txn);\r\n  }\r\n   function tship(uint _upc,bytes32 txn) public onlyManufacturer{\r\n    medicinesHistory[_upc].structArray.push(txn);\r\n  }\r\n   function trecieve(uint _upc,bytes32 txn) public onlyPharmacist{\r\n    medicinesHistory[_upc].structArray.push(txn);\r\n  }\r\n  function tpurchase(uint _upc,bytes32 txn) public onlyPatient{\r\n    medicinesHistory[_upc].structArray.push(txn);\r\n  }\r\n\r\n\r\n  //  Define a function 'packMedicine' that allows a manufacturer to mark a medicine 'Packed'\r\n  // Call modifier to check if upc has passed previous supply chain stage\r\n  //   made(_upc)\r\n  //  Call modifier to verify caller of this function\r\n  function packMedicine(uint _upc) public made(_upc) onlyManufacturer\r\n  {\r\n    // Update the appropriate fields\r\n    medicines[_upc].medicineState = State.Packed;\r\n\r\n    // Emit the appropriate event\r\n    emit Packed(_upc);\r\n  }\r\n\r\n  // Define a function 'sellMedicine' that allows a manufacturer to mark an medicine 'ForSale'\r\n  // Call modifier to check if upc has passed previous supply chain stage\r\n  // packed(_upc)\r\n  // Call modifier to verify caller of this function\r\n  function sellMedicine(uint _upc, uint _price) public packed(_upc) onlyManufacturer\r\n  {\r\n    // Update the appropriate fields\r\n    medicines[_upc].medicineState = State.ForSale;\r\n    medicines[_upc].medicinePrice = _price;\r\n    // Emit the appropriate event\r\n    emit ForSale(_upc);\r\n  }\r\n\r\n  // Define a function 'buyMedicine' that allows the distributor to mark a medicine 'Sold'\r\n  // Use the above defined modifiers to check if the medicine is available for sale, if the buyer has paid enough, \r\n  // and any excess ether sent is refunded back to the buyer\r\n  // Call modifier to check if upc has passed previous supply chain stage\r\n  // forSale(_upc)\r\n  // Call modifer to check if buyer has paid enough\r\n  // paidEnough(medicines[_upc].medicinePrice)\r\n  // Call modifer to send any excess ether back to buyer\r\n  // checkValue(_upc)\r\n  //limit to distributers , no end consumers are allowed to buy from factory.\r\n  function buyMedicine(uint _upc) public payable forSale(_upc) paidEnough(medicines[_upc].medicinePrice) onlyDistributor \r\n    {\r\n      // Update the appropriate fields - ownerID, distributorID, medicineState\r\n      medicines[_upc].medicineState = State.Sold;\r\n      medicines[_upc].distributorID = msg.sender;\r\n      // Transfer money to manufacturer\r\n      payable(medicines[_upc].originManufacturerID).transfer(msg.value);\r\n      // emit the appropriate event\r\n      emit Sold(_upc);\r\n    }\r\n\r\n  // Define a function 'shipMedicine' that allows the distributor to mark an medicine 'Shipped'\r\n  // Use the above modifers to check if the medicine is sold\r\n  // Call modifier to check if upc has passed previous supply chain stage\r\n  // sold(_upc)\r\n  // Call modifier to verify caller of this function\r\n  function shipMedicine(uint _upc) public sold(_upc) onlyManufacturer \r\n    {\r\n      //check if the factory is the one making this medicine.\r\n      require(medicines[_upc].originManufacturerID == msg.sender,\"Manufacturers can ship only medicines by them\");\r\n      // Update the appropriate fields\r\n      medicines[_upc].medicineState = State.Shipped;\r\n      // Emit the appropriate event\r\n      emit Shipped(_upc);\r\n    }\r\n\r\n  // Define a function 'receiveMedicine' that allows the pharmacist to mark an medicine 'Received'\r\n  // Use the above modifiers to check if the medicine is shipped\r\n  // Call modifier to check if upc has passed previous supply chain stage\r\n  // shipped(_upc)\r\n  // Access Control List enforced by calling Smart Contract / DApp\r\n  function receiveMedicine(uint _upc) public shipped(_upc) onlyPharmacist\r\n    {\r\n    // Update the appropriate fields - ownerID, pharmacistID, medicineState\r\n    medicines[_upc].pharmacistID = msg.sender;\r\n    medicines[_upc].medicineState = State.Received;\r\n\r\n    // Emit the appropriate event\r\n    emit Received(_upc);\r\n  }\r\n\r\n  // Define a function 'purchaseMedicine' that allows the patient to mark an medicine 'Purchased'\r\n  // Use the above modifiers to check if the medicine is received\r\n  // Call modifier to check if upc has passed previous supply chain stage\r\n  // received(_upc)\r\n  // Access Control List enforced by calling Smart Contract / DApp\r\n  function purchaseMedicine(uint _upc) public received(_upc) onlyPatient  \r\n    {\r\n      // Up    medicines[_upc].medicineState = State.Shipped;\r\n      medicines[_upc].patientID = msg.sender;\r\n      medicines[_upc].medicineState = State.Purchased;\r\n   //   medicines[_upc].distr.transfer(medicines[_upc].medicinePrice);\r\n      // Emit the appropriate event\r\n      emit Purchased(_upc);\r\n    }\r\n\r\n  // Define a function 'fetchMedicineBufferOne' that fetches the data\r\n  function fetchMedicineBufferOne(uint _upc) public view returns \r\n  (\r\n    address ownerID,\r\n    address originManufacturerID,\r\n    string memory  originFactoryName,\r\n    string memory  originFactoryInformation,\r\n    string memory  originFactoryLatitude,\r\n    string memory  originFactoryLongitude\r\n    ) \r\n  {\r\n  // Assign values to the 7 parameters\r\n  return \r\n  (\r\n    medicines[_upc].ownerID,\r\n    medicines[_upc].originManufacturerID,\r\n    medicines[_upc].originFactoryName,\r\n    medicines[_upc].originFactoryInformation,\r\n    medicines[_upc].originFactoryLatitude,\r\n    medicines[_upc].originFactoryLongitude\r\n    );\r\n}\r\n\r\n  // Define a function 'fetchMedicineBufferTwo' that fetches the data\r\n  function fetchMedicineBufferTwo(uint _upc) public view returns \r\n  (\r\n    string memory  medicineNotes,\r\n    uint    medicinePrice,\r\n    State   medicineState,\r\n    address distributorID,\r\n    address pharmacistID,\r\n    address patientID\r\n    ) \r\n  {\r\n    // Assign values to the 7 parameters\r\n    return \r\n    (\r\n      // medicines[_upc].originFactoryLongitude,\r\n      medicines[_upc].medicineNotes,\r\n      medicines[_upc].medicinePrice,\r\n      medicines[_upc].medicineState,\r\n      medicines[_upc].distributorID,\r\n      medicines[_upc].pharmacistID,\r\n      medicines[_upc].patientID\r\n      );\r\n  }\r\n\r\n  // Define a function 'fetchMedicineBufferThree' that fetches the data\r\n  function fetchMedicineBufferThree(uint _upc) public view returns \r\n  (\r\n    uint    medicineSKU,\r\n    uint    medicineUPC,\r\n    uint    medicineID\r\n    ) \r\n  {\r\n    // Assign values to the 3 parameters    \r\n    return \r\n    (\r\n      medicines[_upc].sku,\r\n      medicines[_upc].upc,\r\n      medicines[_upc].medicineID      \r\n      );\r\n  }\r\n}",
  "sourcePath": "C:\\Users\\divy maheshwari\\MernProjects\\medical\\client\\src\\contracts\\medicinebase\\SupplyChain.sol",
  "compiler": {
    "name": "solc",
    "version": "0.8.9+commit.e5eed63a.Emscripten.clang"
  },
  "schemaVersion": "3.4.3",
  "updatedAt": "2021-11-01T06:19:08.238Z",
  "devdoc": {
    "kind": "dev",
    "methods": {},
    "version": 1
  },
  "userdoc": {
    "kind": "user",
    "methods": {},
    "version": 1
  }
}